:100000000C9462000C948A000C948A000C948A0070
:100010000C948A000C948A000C948A000C948A0038
:100020000C948A000C948A000C948A000C948A0028
:100030000C948A000C948A000C948A000C948A0018
:100040000C9423050C948A000C948A000C948A006A
:100050000C948A000C948A000C948A000C948A00F8
:100060000C948A000C948A000000000024002700F1
:100070002A0000000000250028002B0000000000DE
:1000800023002600290004040404040404040202DA
:100090000202020203030303030301020408102007
:1000A0004080010204081020010204081020000012
:1000B0000008000201000003040700000000000027
:1000C0000000AA0711241FBECFEFD8E0DEBFCDBFCE
:1000D00011E0A0E0B1E0E6E2F5E102C005900D928A
:1000E000AC34B107D9F721E0ACE4B1E001C01D9216
:1000F000A438B207E1F710E0C2E6D0E004C02197CF
:10010000FE010E94750AC136D107C9F70E946D052C
:100110000C94910A0C9400008091680190916901FF
:100120008230910538F0880F991F880F991F059725
:100130000197F1F70895833081F028F4813099F028
:100140008230A9F008958730A9F08830C9F0843052
:10015000B1F4809180008F7D03C0809180008F7703
:1001600080938000089584B58F7784BD089584B509
:100170008F7DFBCF8091B0008F778093B000089582
:100180008091B0008F7DF9CFCF93DF93282F30E09F
:10019000F901E255FF4F8491F901E656FF4FD491E2
:1001A000F901EA57FF4FC491CC23A1F081110E94BD
:1001B0009B00EC2FF0E0EE0FFF1FE458FF4FA591DE
:1001C000B491EC91ED2381E090E009F480E0DF91BF
:1001D000CF91089580E090E0FACF1F93CF93DF9303
:1001E000282F30E0F901E255FF4F8491F901E656DE
:1001F000FF4FD491F901EA57FF4FC491CC23A9F0E6
:10020000162F81110E949B00EC2FF0E0EE0FFF1FD4
:10021000EE58FF4FA591B4918FB7F894EC9111115E
:1002200008C0D095DE23DC938FBFDF91CF911F9163
:100230000895DE2BF8CFCF93DF93EC01809172010C
:1002400090917301029749F4C130D10509F43BC084
:100250006CF560E0209709F437C0809172019091AD
:100260007301049749F4C130D10509F45CC00CF066
:1002700037C0209709F442C08091720190917301B8
:10028000059709F0E5C0CA30D10508F0E1C0FE01CC
:10029000E45BFE4F0C94750AAB01B701C801DE01A7
:1002A000F901FB0102020E021F022602C230D10533
:1002B000A9F060E0C330D10581F6809176010E94FB
:1002C000ED0060E006C061E0809176010E94ED00E3
:1002D00061E0809178010E94ED00BFCF61E0EDCF39
:1002E000C230D10539F1C330D10509F0C5CF61E085
:1002F000809176010E94ED0060E022C061E0809173
:1003000076010E94ED0060E0809178010E94ED008E
:1003100061E080917A010E94ED0060E080917C01B3
:100320000E94ED00A9CF60E0809176010E94ED006F
:1003300061E0EACF60E0809176010E94ED0061E02B
:10034000809178010E94ED0060E080917A010E9426
:10035000ED0061E0E3CF60E0809176010E94ED0066
:1003600061E0809178010E94ED0061E00BC060E0E7
:10037000809176010E94ED0061E0809178010E94F9
:10038000ED0060E080917A010E94ED0060E010C015
:1003900060E0809176010E94ED0061E0809178013B
:1003A0000E94ED0060E080917A010E94ED0061E022
:1003B00080917C010E94ED0061E015C060E08091B9
:1003C00076010E94ED0061E0809178010E94ED00CD
:1003D00060E080917A010E94ED0061E080917C01F3
:1003E0000E94ED0060E080917E01DF91CF910C943E
:1003F000ED0061E0E4CF61E0809176010E94ED00C4
:1004000060E0E2CF61E0809176010E94ED0060E063
:10041000809178010E94ED0061E0DBCF61E0809186
:1004200076010E94ED0060E0809178010E94ED006D
:1004300061E080917A010E94ED0060E0CFCF61E041
:10044000809176010E94ED0060E08BCF60E0F8CFF4
:10045000DF91CF910895CF93DF9390E0FC01E656B2
:10046000FF4F24918A579F4FFC0184918823C9F044
:1004700090E0880F991FFC01E859FF4FA591B491B6
:10048000FC01EE58FF4FC591D49161110DC09FB78B
:10049000F8948C91209582238C938881282328833B
:1004A0009FBFDF91CF910895623051F49FB7F894C8
:1004B0003C91822F809583238C93E8812E2BEFCF64
:1004C0008FB7F894EC912E2B2C938FBFEACFCF935C
:1004D000DF93C5E6D1E061E089810E942B020E9492
:1004E0008C0060E088810E942B020E948C0060E0FA
:1004F00089810E942B02DF91CF910C948C000F9385
:100500001F93CF93DF93D82FC8E061E080916501FE
:100510000E942B020E948C000D2F10E060E0D0FFA3
:1005200061E0809166010E942B020E948C0060E0D5
:10053000809165010E942B020E948C001595079501
:10054000D02FC15011F761E0809165010E942B020C
:1005500060E0809166010E942B020E948C0060E0A6
:10056000809165010E942B020E948C00809166019F
:100570000E94C400C82F811105C061E0809166010E
:100580000E942B020E948C0061E0809165010E9414
:100590002B020E948C0081E0C11101C080E0DF913C
:1005A000CF911F910F91089561E0809166010E94A3
:1005B0002B020C948C00EF92FF920F931F93CF931A
:1005C000DF93182FE92E062FC42F0E94D40280E457
:1005D0000E947F020E9467020E94D40280EC8C0F6E
:1005E0000E947F02F12EC12FDE2D89910E947F0291
:1005F0008C2F8F198017C8F30E9467020E94D402C3
:10060000809167018F7080580E947F02DF91CF91A7
:100610001F910F91FF90EF900C9467028F929F9221
:10062000AF92BF92CF92DF92EF920F931F93CF932F
:10063000DF9300D000D0CDB7DEB76B0130E087FF8D
:1006400002C0819531E0E02FF0E0BE016F5F7F4F87
:100650005B013197C114D10431F5211124C0822FDF
:1006600090E08E179F0734F48A0D9B1DDC011C92CD
:100670002F5FF5CFEA0DFB1D8FE380834E2D602F9A
:10068000C5010E94DB020F900F900F900F90DF9139
:10069000CF911F910F91EF90DF90CF90BF90AF90CF
:1006A0009F908F900895EA0DFB1D882E880F990862
:1006B00010E4C601B4010E940C0ADC01982F8111DC
:1006C0000BC0C114D10441F4211106C010823323A0
:1006D00059F0108330E008C0A45CBE4F8C91808339
:1006E000911102C0CD2899F36B013197D501CF014B
:1006F0008A199B0997FFDDCF442309F4BFCF9E01E0
:100700002B5F3F4F9D91FD013197842F8078892B7E
:100710008083440FA217B307A9F7B0CFEF920F93CE
:10072000362FBC0197FF04C066277727681B790B1B
:1007300097FD0AC08AE0E22E042F232F40E00E949A
:100740000E030F91EF90089586EFF5CF3FB7F89421
:100750008091510190915201A0915301B0915401A7
:1007600026B5A89B05C02F3F19F00196A11DB11D0C
:100770003FBFBA2FA92F982F8827BC01CD01620F48
:10078000711D811D911D42E0660F771F881F991F03
:100790004A95D1F708958F929F92AF92BF92CF92D0
:1007A000DF92EF92FF924B015C010E94A6036B0166
:1007B0007C010E94A6036C197D098E099F09683E81
:1007C000734081059105A8F321E0821A9108A108E0
:1007D000B10888EEC80E83E0D81EE11CF11C81141C
:1007E0009104A104B10429F7FF90EF90DF90CF901E
:1007F000BF90AF909F908F900895CF92DF92EF922D
:10080000FF92CF93DF93C0915701D0915801BE0161
:100810000D2E000C880B990B0E94130920E030E08C
:1008200040E05FE30E949F090E94DB086B01709328
:10083000560160935501072E000C880B990B0E94FE
:10084000130920E030E040E251E40E949F0920E0DB
:1008500030E040E752E40E9469089B01AC0160E08F
:1008600070E084EB94E40E94FC070E94DB08D092C5
:100870006001C0925F01D0936201C09361017093E7
:100880005A0160935901DB012CE330E00E947B0A9E
:1008900060935B0170935C0180935D0190935E01B6
:1008A000DF91CF91FF90EF90DF90CF9008954F921E
:1008B0005F926F927F928F929F92AF92BF92EF92D0
:1008C000FF920F931F93CF93DF938091100160E00D
:1008D000782F770F770F770F072E000C880B990B67
:1008E0000E94130920E030E040EC5FE30E949F0982
:1008F0000E94DB089B01EB0177FF04C0CC27DD27BA
:10090000C61BD70B121613060CF061C081E090E0F5
:1009100090936B0180936A0104E010E08AE0E82E76
:10092000F12C209709F46FC00E94A60380908001EB
:1009300090908101A0908201B09083012B013C0135
:10094000481859086A087B0880906C0190906D01E6
:10095000A0906E01B0906F01481459046A047B04A2
:1009600000F36093800170938101809382019093E2
:100970008301809174019091750120916A013091F9
:100980006B012130310559F50196909375018093E3
:10099000740120917001309171018217930721F445
:1009A00010927501109274012197809174019091B9
:1009B00075012091720130917301B7012530310525
:1009C00009F0B8010E94200A0E941B01AACF232B24
:1009D00009F4A2CF10926B0110926A019DCF892B6E
:1009E00041F4809170019091710190937501809311
:1009F0007401809174019091750101979093750134
:100A000080937401D1CF8091300190913101892B75
:100A100059F480911001909111019195819591095E
:100A20009093110180931001DF91CF911F910F914D
:100A3000FF90EF90BF90AF909F908F907F906F90BE
:100A40005F904F9008951F920F920FB60F9211244E
:100A50002F933F938F939F93AF93BF9380914D01BB
:100A600090914E01A0914F01B091500130914C01F5
:100A700023E0230F2D3758F50196A11DB11D2093BA
:100A80004C0180934D0190934E01A0934F01B09380
:100A900050018091510190915201A0915301B09168
:100AA00054010196A11DB11D8093510190935201F3
:100AB000A0935301B0935401BF91AF919F918F9137
:100AC0003F912F910F900FBE0F901F90189526E821
:100AD000230F0296A11DB11DD2CF789484B58260F8
:100AE00084BD84B5816084BD85B5826085BD85B5D2
:100AF000816085BD80916E00816080936E00109250
:100B000081008091810082608093810080918100CA
:100B1000816080938100809180008160809380005B
:100B20008091B10084608093B1008091B0008160B9
:100B30008093B00080917A00846080937A008091E5
:100B40007A00826080937A0080917A00816080933D
:100B50007A0080917A00806880937A001092C100B8
:100B60002091700130917101032E000C440B550B44
:100B700060E077E883E993E00E94560ACA01B90170
:100B80002AE030E040E050E00E94560A20936C01D9
:100B900030936D0140936E0150936F018AE0809312
:100BA000670162E082E00E942B0283E090E0909374
:100BB0002F0180932E010E94FD039CE3292E312CEE
:100BC000412C512CCFEFDFEF64EF71E080E090E03B
:100BD0000E94CB038091630190916401009759F5C5
:100BE0008091320190913301019683309105BCF4DC
:100BF00090933301809332018091320190913301BF
:100C0000009791F440E064E084E091E00E94DB0210
:100C100060ED77E080E090E00E94CB03ADC01092E1
:100C2000330110923201E8CF019791F740E064E080
:100C300080E091E0EBCF8130910599F580912E0114
:100C400090912F0101968430910520F590932F010A
:100C500080932E01E0912E01F0912F01EE0FFF1FE6
:100C6000EC5CFE4FC080D180D0925801C0925701F9
:100C70000E94FD03809132019091330120E044E015
:100C800060E0892B61F480915501909156010E949A
:100C90008E03BECF10922F0110922E01DBCFC60122
:100CA000F6CF82309105D1F58091300190913101DC
:100CB000019683309105BCF490933101809330010B
:100CC0008091300190913101009791F440E064E00F
:100CD00082E191E00E94DB0281E090E090931101BB
:100CE0008093100195CF1092310110923001E8CF1E
:100CF0008130910559F440E064E08CE091E00E947D
:100D0000DB02D0931101C093100182CF029709F04A
:100D10007FCF40E064E088E091E0DCCF039761F5AD
:100D20008091320190913301009709F0A7C0C090E3
:100D30005F01D09060011C141D040CF04DC0C0FE7A
:100D400044C040E062E086E191E00E94DB028091D5
:100D5000300190913101009749F542E062E086E26E
:100D600091E00E94DB020E94570491E0C91AD10869
:100D7000D0926001C0925F0182E00E94C400892B82
:100D800069F480916301909164010196843091052A
:100D90000CF0CFC0909364018093630180E090E0F9
:100DA000892B09F411CF0E9400000ECF81309105EC
:100DB00029F442E062E082E291E0D3CF029799F613
:100DC00042E062E08EE191E0CCCF20E044E060E0E0
:100DD000C6010E948E03C7CF80905B0190905C019A
:100DE000A0905D01B0905E0181149104A104B10452
:100DF00039F40E94FD0364EF71E080E090E00CCFD5
:100E00006090590170905A01C3016CE370E00E9438
:100E1000200A9B016C0177FF04C066277727621BBD
:100E2000730B8AE037FD86EFE12C02E021E040E41D
:100E30000E940E0322E042E061E0C6010E948E03A0
:100E4000C501B401615071098109910960935B0189
:100E500070935C0180935D0190935E01A20191010A
:100E60000E94340A672B682B692B29F681E0681AE7
:100E7000710870925A0160925901BDCF019709F033
:100E80007BCFC0906101D09062011C141D04A4F5B9
:100E9000C0FE2BC040E062E08AE291E00E94DB02EB
:100EA0008091300190913101009781F442E062E03D
:100EB00086E291E00E94DB020E94570491E0C91A89
:100EC000D108D0926201C092610156CF8130910564
:100ED00029F442E062E082E291E0ECCF029761F710
:100EE00042E062E08EE191E0E5CF20E044E060E0A6
:100EF000C6010E948E03E0CF40E064E08AE191E009
:100F00000E94DB0268EB7BE080E090E00E94CB0374
:100F10001092640110926301D0933101C0933001AB
:100F2000D0932F01C0932E01D0933301C09332018F
:100F300023CF1092640110926301D0933101C093CA
:100F40003001D0932F01C0932E01D0933301C09371
:100F5000320124CFCF93DF93CAE6D1E01B861A86F5
:100F6000198218821E8A1F8A188E198E80E098E0D6
:100F70009F838E8388E090E09D878C878AE090E055
:100F80009F878E8789E090E0998B888B8BE090E03B
:100F90009B8B8A8B61E088E00E942B0261E08E854A
:100FA0000E942B0261E088890E942B0261E08A89FD
:100FB0000E942B021D8A1C8A84E090E09987888712
:100FC000C5E6D1E086E0888385E0898384E690E009
:100FD0009C838B8360E086E00E942B0260E0898125
:100FE0000E942B0260E088810E94ED0060E0898110
:100FF000DF91CF910C94ED005058BB27AA270E9497
:1010000014080C9465090E94570938F00E945E0983
:1010100020F039F49F3F19F426F40C9454090EF48F
:10102000E095E7FB0C944E09E92F0E94760958F3EE
:10103000BA17620773078407950720F079F4A6F5BD
:101040000C9498090EF4E0950B2EBA2FA02D0B01ED
:10105000B90190010C01CA01A0011124FF27591BFD
:1010600099F0593F50F4503E68F11A16F040A22F03
:10107000232F342F4427585FF3CF46953795279574
:10108000A795F0405395C9F77EF41F16BA0B620B73
:10109000730B840BBAF09150A1F0FF0FBB1F661FBA
:1010A000771F881FC2F70EC0BA0F621F731F841FFD
:1010B00048F4879577956795B795F7959E3F08F023
:1010C000B0CF9395880F08F09927EE0F97958795E5
:1010D00008950E947D080C9465090E945E0958F0ED
:1010E0000E94570940F029F45F3F29F00C944E0903
:1010F00051110C9499090C9454090E94760968F3D3
:101100009923B1F3552391F3951B550BBB27AA27C0
:1011100062177307840738F09F5F5F4F220F331FFA
:10112000441FAA1FA9F335D00E2E3AF0E0E832D0C2
:1011300091505040E695001CCAF72BD0FE2F29D0C5
:10114000660F771F881FBB1F261737074807AB0797
:10115000B0E809F0BB0B802DBF01FF2793585F4F0C
:101160003AF09E3F510578F00C944E090C94990981
:101170005F3FE4F3983ED4F3869577956795B795EE
:10118000F7959F5FC9F7880F911D9695879597F9F9
:101190000895E1E0660F771F881FBB1F6217730772
:1011A0008407BA0720F0621B730B840BBA0BEE1F87
:1011B00088F7E09508950E94E2086894B1110C94B4
:1011C000990908950E947E0988F09F5798F0B92FD9
:1011D0009927B751B0F0E1F0660F771F881F991F6C
:1011E0001AF0BA95C9F714C0B13091F00E9498096D
:1011F000B1E008950C949809672F782F8827B85F7D
:1012000039F0B93FCCF3869577956795B395D9F7C3
:101210003EF490958095709561957F4F8F4F9F4FCD
:101220000895E89409C097FB3EF4909580957095D9
:1012300061957F4F8F4F9F4F9923A9F0F92F96E922
:10124000BB279395F695879577956795B795F11197
:10125000F8CFFAF4BB0F11F460FF1BC06F5F7F4F34
:101260008F4F9F4F16C0882311F096E911C0772346
:1012700021F09EE8872F762F05C0662371F096E84F
:10128000862F70E060E02AF09A95660F771F881F1E
:10129000DAF7880F9695879597F9089597F99F67DC
:1012A00080E870E060E008959FEF80EC08950024EE
:1012B0000A941616170618060906089500240A94BB
:1012C00012161306140605060895092E0394000C41
:1012D00011F4882352F0BB0F40F4BF2B11F460FFD0
:1012E00004C06F5F7F4F8F4F9F4F089557FD9058F9
:1012F000440F551F59F05F3F71F04795880F97FBDA
:10130000991F61F09F3F79F0879508951216130693
:101310001406551FF2CF4695F1DF08C016161706C2
:101320001806991FF1CF86957105610508940895F7
:10133000E894BB2766277727CB0197F908950E9489
:10134000B2090C9465090E94570938F00E945E09A1
:1013500020F0952311F00C944E090C94540911249B
:101360000C9499090E94760970F3959FC1F3950F2B
:1013700050E0551F629FF001729FBB27F00DB11D19
:10138000639FAA27F00DB11DAA1F649F6627B00DA9
:10139000A11D661F829F2227B00DA11D621F739F92
:1013A000B00DA11D621F839FA00D611D221F749FA0
:1013B0003327A00D611D231F849F600D211D822FE7
:1013C000762F6A2F11249F5750409AF0F1F088230E
:1013D0004AF0EE0FFF1FBB1F661F771F881F91503B
:1013E0005040A9F79E3F510580F00C944E090C9493
:1013F00099095F3FE4F3983ED4F386957795679516
:10140000B795F795E7959F5FC1F7FE2B880F911D64
:101410009695879597F90895AA1BBB1B51E107C0C4
:10142000AA1FBB1FA617B70710F0A61BB70B881F74
:10143000991F5A95A9F780959095BC01CD01089503
:1014400097FB072E16F4009407D077FD09D00E9471
:101450000C0A07FC05D03EF4909581959F4F0895A6
:10146000709561957F4F0895A1E21A2EAA1BBB1BB0
:10147000FD010DC0AA1FBB1FEE1FFF1FA217B30760
:10148000E407F50720F0A21BB30BE40BF50B661F76
:10149000771F881F991F1A9469F76095709580953A
:1014A00090959B01AC01BD01CF010895052E97FBDE
:1014B0001EF400940E946D0A57FD07D00E94340A62
:1014C00007FC03D04EF40C946D0A5095409530956E
:1014D00021953F4F4F4F5F4F0895909580957095A0
:1014E00061957F4F8F4F9F4F0895EE0FFF1F05901F
:1014F000F491E02D09940E94820AB7FF0895821B9F
:10150000930B0895A29FB001B39FC001A39F700DDC
:10151000811D1124911DB29F700D811D1124911DFB
:061520000895F894FFCFCE
:10152600711C0606395C54784646464670707070E3
:10153600010046467070390000005E5C54794646EC
:101546000000707000004670000071000000FFFF90
:10155600FFFFFFFFEE02E803DC0508073F065B4FCF
:0C156600666D7D077F6F777C395E7971C0
:107E0000112484B714BE81FFF0D085E080938100F7
:107E100082E08093C00088E18093C10086E0809377
:107E2000C20080E18093C4008EE0C9D0259A86E02C
:107E300020E33CEF91E0309385002093840096BBD3
:107E4000B09BFECF1D9AA8958150A9F7CC24DD24C4
:107E500088248394B5E0AB2EA1E19A2EF3E0BF2EE7
:107E6000A2D0813461F49FD0082FAFD0023811F036
:107E7000013811F484E001C083E08DD089C08234E0
:107E800011F484E103C0853419F485E0A6D080C0E4
:107E9000853579F488D0E82EFF2485D0082F10E0AE
:107EA000102F00270E291F29000F111F8ED06801E7
:107EB0006FC0863521F484E090D080E0DECF843638
:107EC00009F040C070D06FD0082F6DD080E0C81688
:107ED00080E7D80618F4F601B7BEE895C0E0D1E017
:107EE00062D089930C17E1F7F0E0CF16F0E7DF06D8
:107EF00018F0F601B7BEE89568D007B600FCFDCFD4
:107F0000A601A0E0B1E02C9130E011968C91119780
:107F100090E0982F8827822B932B1296FA010C0160
:107F200087BEE89511244E5F5F4FF1E0A038BF0790
:107F300051F7F601A7BEE89507B600FCFDCF97BE46
:107F4000E89526C08437B1F42ED02DD0F82E2BD052
:107F50003CD0F601EF2C8F010F5F1F4F84911BD097
:107F6000EA94F801C1F70894C11CD11CFA94CF0C13
:107F7000D11C0EC0853739F428D08EE10CD085E9AC
:107F80000AD08FE07ACF813511F488E018D01DD067
:107F900080E101D065CF982F8091C00085FFFCCF94
:107FA0009093C60008958091C00087FFFCCF809118
:107FB000C00084FD01C0A8958091C6000895E0E648
:107FC000F0E098E1908380830895EDDF803219F02E
:107FD00088E0F5DFFFCF84E1DECF1F93182FE3DFCA
:107FE0001150E9F7F2DF1F91089580E0E8DFEE27F6
:047FF000FF270994CA
:027FFE00040479
:0400000300007E007B
:00000001FF
